{"contracts/EuropeanCallOption.sol":{"EuropeanCallOption":{"abi":[{"inputs":[{"internalType":"address","name":"_underlyingAsset","type":"address"},{"internalType":"address","name":"_strikeAsset","type":"address"},{"internalType":"uint256","name":"_strikePrice","type":"uint256"},{"internalType":"uint256","name":"_expirationTime","type":"uint256"},{"internalType":"uint256","name":"_contractSize","type":"uint256"},{"internalType":"address","name":"_holder","type":"address"},{"internalType":"address","name":"_issuer","type":"address"},{"internalType":"address","name":"_factory","type":"address"}],"stateMutability":"nonpayable","type":"constructor"},{"anonymous":false,"inputs":[{"indexed":true,"internalType":"address","name":"issuer","type":"address"},{"indexed":true,"internalType":"address","name":"holder","type":"address"}],"name":"OptionCreated","type":"event"},{"anonymous":false,"inputs":[{"indexed":true,"internalType":"address","name":"exerciser","type":"address"}],"name":"OptionExercised","type":"event"},{"anonymous":false,"inputs":[{"indexed":true,"internalType":"address","name":"caller","type":"address"}],"name":"OptionExpired","type":"event"},{"anonymous":false,"inputs":[{"indexed":true,"internalType":"address","name":"payer","type":"address"},{"indexed":false,"internalType":"uint256","name":"amount","type":"uint256"}],"name":"PremiumPaid","type":"event"},{"inputs":[],"name":"contractSize","outputs":[{"internalType":"uint256","name":"","type":"uint256"}],"stateMutability":"view","type":"function"},{"inputs":[],"name":"exercised","outputs":[],"stateMutability":"nonpayable","type":"function"},{"inputs":[],"name":"expirationTime","outputs":[{"internalType":"uint256","name":"","type":"uint256"}],"stateMutability":"view","type":"function"},{"inputs":[],"name":"expireOption","outputs":[],"stateMutability":"nonpayable","type":"function"},{"inputs":[],"name":"factory","outputs":[{"internalType":"address","name":"","type":"address"}],"stateMutability":"view","type":"function"},{"inputs":[],"name":"holder","outputs":[{"internalType":"address","name":"","type":"address"}],"stateMutability":"view","type":"function"},{"inputs":[],"name":"isExercisable","outputs":[{"internalType":"bool","name":"","type":"bool"}],"stateMutability":"view","type":"function"},{"inputs":[],"name":"issuer","outputs":[{"internalType":"address","name":"","type":"address"}],"stateMutability":"view","type":"function"},{"inputs":[{"internalType":"uint256","name":"premium","type":"uint256"}],"name":"payPremium","outputs":[],"stateMutability":"nonpayable","type":"function"},{"inputs":[{"internalType":"address","name":"_holder","type":"address"}],"name":"setHolder","outputs":[],"stateMutability":"nonpayable","type":"function"},{"inputs":[],"name":"status","outputs":[{"internalType":"enum EuropeanCallOption.OptionStatus","name":"","type":"uint8"}],"stateMutability":"view","type":"function"},{"inputs":[],"name":"strikeAsset","outputs":[{"internalType":"address","name":"","type":"address"}],"stateMutability":"view","type":"function"},{"inputs":[],"name":"strikePrice","outputs":[{"internalType":"uint256","name":"","type":"uint256"}],"stateMutability":"view","type":"function"},{"inputs":[],"name":"underlyingAsset","outputs":[{"internalType":"address","name":"","type":"address"}],"stateMutability":"view","type":"function"}],"evm":{"bytecode":{"linkReferences":{},"object":"60806040523480156200001157600080fd5b506040516200106c3803806200106c83398101604081905262000034916200037b565b60016000556001600160a01b038816620000955760405162461bcd60e51b815260206004820152601860248201527f496e76616c696420756e6465726c79696e67206173736574000000000000000060448201526064015b60405180910390fd5b6001600160a01b038716620000ed5760405162461bcd60e51b815260206004820152601460248201527f496e76616c696420737472696b6520617373657400000000000000000000000060448201526064016200008c565b600086116200014b5760405162461bcd60e51b815260206004820152602360248201527f537472696b65207072696365206d75737420626520677265617465722074686160448201526206e20360ec1b60648201526084016200008c565b428511620001aa5760405162461bcd60e51b815260206004820152602560248201527f45787069726174696f6e2074696d65206d75737420626520696e207468652066604482015264757475726560d81b60648201526084016200008c565b60008411620002085760405162461bcd60e51b8152602060048201526024808201527f436f6e74726163742073697a65206d75737420626520677265617465722074686044820152630616e20360e41b60648201526084016200008c565b6001600160a01b038216620002605760405162461bcd60e51b815260206004820152601660248201527f496e76616c69642069737375657220616464726573730000000000000000000060448201526064016200008c565b6001600160a01b038116620002b85760405162461bcd60e51b815260206004820152601760248201527f496e76616c696420666163746f7279206164647265737300000000000000000060448201526064016200008c565b600180546001600160a01b038a81166001600160a01b031992831617909255600280548a841690831617905560038890556004879055600586905560078054868416908316811790915560068054868516931683179055600880546001600160a81b031916938516939093179092556040517fbfb6fe20509a93711e236e88c56666be96d2d9f508df251f39a8af0de09ca6c690600090a3505050505050505062000408565b80516001600160a01b03811681146200037657600080fd5b919050565b600080600080600080600080610100898b0312156200039957600080fd5b620003a4896200035e565b9750620003b460208a016200035e565b9650604089015195506060890151945060808901519350620003d960a08a016200035e565b9250620003e960c08a016200035e565b9150620003f960e08a016200035e565b90509295985092959890939650565b610c5480620004186000396000f3fe608060405234801561001057600080fd5b50600436106100ea5760003560e01c8063c45a01551161008c578063d979f5aa11610066578063d979f5aa146101be578063da284dcc146101d1578063dd6cc354146101da578063e534155d146101f257600080fd5b8063c45a01551461019a578063c52987cf146101ad578063cd0483ec146101b657600080fd5b8063200d2ed2116100c8578063200d2ed21461013c5780633d7cc6101461015d5780634364b26e146101745780637158da7c1461018757600080fd5b806314c68b1b146100ef57806317d69bc8146100f95780631d14384814610129575b600080fd5b6100f7610205565b005b60025461010c906001600160a01b031681565b6040516001600160a01b0390911681526020015b60405180910390f35b60065461010c906001600160a01b031681565b60085461015090600160a01b900460ff1681565b6040516101209190610b23565b61016660055481565b604051908152602001610120565b6100f7610182366004610b4b565b6105a9565b60015461010c906001600160a01b031681565b60085461010c906001600160a01b031681565b61016660035481565b6100f76107f5565b6100f76101cc366004610b64565b6108dd565b61016660045481565b6101e2610a63565b6040519015158152602001610120565b60075461010c906001600160a01b031681565b61020d610ab4565b6007546001600160a01b0316331461026c5760405162461bcd60e51b815260206004820152601860248201527f4f6e6c7920686f6c6465722063616e206578657263697365000000000000000060448201526064015b60405180910390fd5b6001600854600160a01b900460ff16600381111561028c5761028c610b0d565b146102d15760405162461bcd60e51b81526020600482015260156024820152744f7074696f6e206d7573742062652061637469766560581b6044820152606401610263565b6004544210156103195760405162461bcd60e51b81526020600482015260136024820152724e6f7420796574206578657263697361626c6560681b6044820152606401610263565b60045461032990620d2f00610baa565b4211156103785760405162461bcd60e51b815260206004820152601760248201527f45786572636973652077696e646f7720657870697265640000000000000000006044820152606401610263565b6000670de0b6b3a76400006005546003546103939190610bc3565b61039d9190610bda565b6002546007546006546040516323b872dd60e01b81526001600160a01b0392831660048201529082166024820152604481018490529293506000929116906323b872dd906064016020604051808303816000875af1158015610403573d6000803e3d6000fd5b505050506040513d601f19601f820116820180604052508101906104279190610bfc565b9050806104765760405162461bcd60e51b815260206004820152601c60248201527f537472696b65206173736574207472616e73666572206661696c6564000000006044820152606401610263565b6001546006546007546005546040516323b872dd60e01b81526001600160a01b0393841660048201529183166024830152604482015260009291909116906323b872dd906064016020604051808303816000875af11580156104dc573d6000803e3d6000fd5b505050506040513d601f19601f820116820180604052508101906105009190610bfc565b90508061054f5760405162461bcd60e51b815260206004820181905260248201527f556e6465726c79696e67206173736574207472616e73666572206661696c65646044820152606401610263565b6008805460ff60a01b1916600360a01b1790556007546040516001600160a01b03909116907ffa515ce210cd6e58126346ce95f93dc7e0dcb998c26907c944766966b12f44ea90600090a25050506105a76001600055565b565b6105b1610ab4565b6007546001600160a01b0316331461060b5760405162461bcd60e51b815260206004820152601b60248201527f4f6e6c7920686f6c6465722063616e20706179207072656d69756d00000000006044820152606401610263565b6000600854600160a01b900460ff16600381111561062b5761062b610b0d565b146106785760405162461bcd60e51b815260206004820152601f60248201527f4f7074696f6e206d75737420626520696e2043726561746564207374617465006044820152606401610263565b600081116106c85760405162461bcd60e51b815260206004820152601e60248201527f5072656d69756d206d7573742062652067726561746572207468616e203000006044820152606401610263565b6002546007546006546040516323b872dd60e01b81526001600160a01b03928316600482015290821660248201526044810184905260009291909116906323b872dd906064016020604051808303816000875af115801561072d573d6000803e3d6000fd5b505050506040513d601f19601f820116820180604052508101906107519190610bfc565b9050806107925760405162461bcd60e51b815260206004820152600f60248201526e151c985b9cd9995c8819985a5b1959608a1b6044820152606401610263565b6008805460ff60a01b1916600160a01b1790556007546040805184815290516001600160a01b03909216917fa21795436a9f6a3b412fd6780f01a49907f2181e76e938496b0a41991d99b61c9181900360200190a2506107f26001600055565b50565b6000600854600160a01b900460ff16600381111561081557610815610b0d565b148061083e57506001600854600160a01b900460ff16600381111561083c5761083c610b0d565b145b61089d5760405162461bcd60e51b815260206004820152602a60248201527f4f7074696f6e206d7573742062652043726561746564206f722041637469766560448201526920746f2065787069726560b01b6064820152608401610263565b6008805460ff60a01b1916600160a11b17905560405133907fa64aea50ffa4e1713d00db76dee2154e493a0e94b75eefa4b7f4f00248ccfa2090600090a2565b6008546001600160a01b031633146109375760405162461bcd60e51b815260206004820152601b60248201527f4f6e6c7920666163746f72792063616e2073657420686f6c64657200000000006044820152606401610263565b6001600160a01b0381166109865760405162461bcd60e51b8152602060048201526016602482015275496e76616c696420686f6c646572206164647265737360501b6044820152606401610263565b6007546001600160a01b0316156109d45760405162461bcd60e51b8152602060048201526012602482015271121bdb19195c88185b1c9958591e481cd95d60721b6044820152606401610263565b6000600854600160a01b900460ff1660038111156109f4576109f4610b0d565b14610a415760405162461bcd60e51b815260206004820152601f60248201527f4f7074696f6e206d75737420626520696e2043726561746564207374617465006044820152606401610263565b600780546001600160a01b0319166001600160a01b0392909216919091179055565b60006001600854600160a01b900460ff166003811115610a8557610a85610b0d565b148015610a9457506004544210155b8015610aaf5750600454610aab90620d2f00610baa565b4211155b905090565b600260005403610b065760405162461bcd60e51b815260206004820152601f60248201527f5265656e7472616e637947756172643a207265656e7472616e742063616c6c006044820152606401610263565b6002600055565b634e487b7160e01b600052602160045260246000fd5b6020810160048310610b4557634e487b7160e01b600052602160045260246000fd5b91905290565b600060208284031215610b5d57600080fd5b5035919050565b600060208284031215610b7657600080fd5b81356001600160a01b0381168114610b8d57600080fd5b9392505050565b634e487b7160e01b600052601160045260246000fd5b80820180821115610bbd57610bbd610b94565b92915050565b8082028115828204841417610bbd57610bbd610b94565b600082610bf757634e487b7160e01b600052601260045260246000fd5b500490565b600060208284031215610c0e57600080fd5b81518015158114610b8d57600080fdfea26469706673582212206acdaa93686a72ccf7bcc96d79f36094bf2300bd410e870308f4ef7059f957c964736f6c63430008130033","opcodes":"PUSH1 0x80 PUSH1 0x40 MSTORE CALLVALUE DUP1 ISZERO PUSH3 0x11 JUMPI PUSH1 0x0 DUP1 REVERT JUMPDEST POP PUSH1 0x40 MLOAD PUSH3 0x106C CODESIZE SUB DUP1 PUSH3 0x106C DUP4 CODECOPY DUP2 ADD PUSH1 0x40 DUP2 SWAP1 MSTORE PUSH3 0x34 SWAP2 PUSH3 0x37B JUMP JUMPDEST PUSH1 0x1 PUSH1 0x0 SSTORE PUSH1 0x1 PUSH1 0x1 PUSH1 0xA0 SHL SUB DUP9 AND PUSH3 0x95 JUMPI PUSH1 0x40 MLOAD PUSH3 0x461BCD PUSH1 0xE5 SHL DUP2 MSTORE PUSH1 0x20 PUSH1 0x4 DUP3 ADD MSTORE PUSH1 0x18 PUSH1 0x24 DUP3 ADD MSTORE PUSH32 0x496E76616C696420756E6465726C79696E672061737365740000000000000000 PUSH1 0x44 DUP3 ADD MSTORE PUSH1 0x64 ADD JUMPDEST PUSH1 0x40 MLOAD DUP1 SWAP2 SUB SWAP1 REVERT JUMPDEST PUSH1 0x1 PUSH1 0x1 PUSH1 0xA0 SHL SUB DUP8 AND PUSH3 0xED JUMPI PUSH1 0x40 MLOAD PUSH3 0x461BCD PUSH1 0xE5 SHL DUP2 MSTORE PUSH1 0x20 PUSH1 0x4 DUP3 ADD MSTORE PUSH1 0x14 PUSH1 0x24 DUP3 ADD MSTORE PUSH32 0x496E76616C696420737472696B65206173736574000000000000000000000000 PUSH1 0x44 DUP3 ADD MSTORE PUSH1 0x64 ADD PUSH3 0x8C JUMP JUMPDEST PUSH1 0x0 DUP7 GT PUSH3 0x14B JUMPI PUSH1 0x40 MLOAD PUSH3 0x461BCD PUSH1 0xE5 SHL DUP2 MSTORE PUSH1 0x20 PUSH1 0x4 DUP3 ADD MSTORE PUSH1 0x23 PUSH1 0x24 DUP3 ADD MSTORE PUSH32 0x537472696B65207072696365206D757374206265206772656174657220746861 PUSH1 0x44 DUP3 ADD MSTORE PUSH3 0x6E203 PUSH1 0xEC SHL PUSH1 0x64 DUP3 ADD MSTORE PUSH1 0x84 ADD PUSH3 0x8C JUMP JUMPDEST TIMESTAMP DUP6 GT PUSH3 0x1AA JUMPI PUSH1 0x40 MLOAD PUSH3 0x461BCD PUSH1 0xE5 SHL DUP2 MSTORE PUSH1 0x20 PUSH1 0x4 DUP3 ADD MSTORE PUSH1 0x25 PUSH1 0x24 DUP3 ADD MSTORE PUSH32 0x45787069726174696F6E2074696D65206D75737420626520696E207468652066 PUSH1 0x44 DUP3 ADD MSTORE PUSH5 0x7574757265 PUSH1 0xD8 SHL PUSH1 0x64 DUP3 ADD MSTORE PUSH1 0x84 ADD PUSH3 0x8C JUMP JUMPDEST PUSH1 0x0 DUP5 GT PUSH3 0x208 JUMPI PUSH1 0x40 MLOAD PUSH3 0x461BCD PUSH1 0xE5 SHL DUP2 MSTORE PUSH1 0x20 PUSH1 0x4 DUP3 ADD MSTORE PUSH1 0x24 DUP1 DUP3 ADD MSTORE PUSH32 0x436F6E74726163742073697A65206D7573742062652067726561746572207468 PUSH1 0x44 DUP3 ADD MSTORE PUSH4 0x616E203 PUSH1 0xE4 SHL PUSH1 0x64 DUP3 ADD MSTORE PUSH1 0x84 ADD PUSH3 0x8C JUMP JUMPDEST PUSH1 0x1 PUSH1 0x1 PUSH1 0xA0 SHL SUB DUP3 AND PUSH3 0x260 JUMPI PUSH1 0x40 MLOAD PUSH3 0x461BCD PUSH1 0xE5 SHL DUP2 MSTORE PUSH1 0x20 PUSH1 0x4 DUP3 ADD MSTORE PUSH1 0x16 PUSH1 0x24 DUP3 ADD MSTORE PUSH32 0x496E76616C696420697373756572206164647265737300000000000000000000 PUSH1 0x44 DUP3 ADD MSTORE PUSH1 0x64 ADD PUSH3 0x8C JUMP JUMPDEST PUSH1 0x1 PUSH1 0x1 PUSH1 0xA0 SHL SUB DUP2 AND PUSH3 0x2B8 JUMPI PUSH1 0x40 MLOAD PUSH3 0x461BCD PUSH1 0xE5 SHL DUP2 MSTORE PUSH1 0x20 PUSH1 0x4 DUP3 ADD MSTORE PUSH1 0x17 PUSH1 0x24 DUP3 ADD MSTORE PUSH32 0x496E76616C696420666163746F72792061646472657373000000000000000000 PUSH1 0x44 DUP3 ADD MSTORE PUSH1 0x64 ADD PUSH3 0x8C JUMP JUMPDEST PUSH1 0x1 DUP1 SLOAD PUSH1 0x1 PUSH1 0x1 PUSH1 0xA0 SHL SUB DUP11 DUP2 AND PUSH1 0x1 PUSH1 0x1 PUSH1 0xA0 SHL SUB NOT SWAP3 DUP4 AND OR SWAP1 SWAP3 SSTORE PUSH1 0x2 DUP1 SLOAD DUP11 DUP5 AND SWAP1 DUP4 AND OR SWAP1 SSTORE PUSH1 0x3 DUP9 SWAP1 SSTORE PUSH1 0x4 DUP8 SWAP1 SSTORE PUSH1 0x5 DUP7 SWAP1 SSTORE PUSH1 0x7 DUP1 SLOAD DUP7 DUP5 AND SWAP1 DUP4 AND DUP2 OR SWAP1 SWAP2 SSTORE PUSH1 0x6 DUP1 SLOAD DUP7 DUP6 AND SWAP4 AND DUP4 OR SWAP1 SSTORE PUSH1 0x8 DUP1 SLOAD PUSH1 0x1 PUSH1 0x1 PUSH1 0xA8 SHL SUB NOT AND SWAP4 DUP6 AND SWAP4 SWAP1 SWAP4 OR SWAP1 SWAP3 SSTORE PUSH1 0x40 MLOAD PUSH32 0xBFB6FE20509A93711E236E88C56666BE96D2D9F508DF251F39A8AF0DE09CA6C6 SWAP1 PUSH1 0x0 SWAP1 LOG3 POP POP POP POP POP POP POP POP PUSH3 0x408 JUMP JUMPDEST DUP1 MLOAD PUSH1 0x1 PUSH1 0x1 PUSH1 0xA0 SHL SUB DUP2 AND DUP2 EQ PUSH3 0x376 JUMPI PUSH1 0x0 DUP1 REVERT JUMPDEST SWAP2 SWAP1 POP JUMP JUMPDEST PUSH1 0x0 DUP1 PUSH1 0x0 DUP1 PUSH1 0x0 DUP1 PUSH1 0x0 DUP1 PUSH2 0x100 DUP10 DUP12 SUB SLT ISZERO PUSH3 0x399 JUMPI PUSH1 0x0 DUP1 REVERT JUMPDEST PUSH3 0x3A4 DUP10 PUSH3 0x35E JUMP JUMPDEST SWAP8 POP PUSH3 0x3B4 PUSH1 0x20 DUP11 ADD PUSH3 0x35E JUMP JUMPDEST SWAP7 POP PUSH1 0x40 DUP10 ADD MLOAD SWAP6 POP PUSH1 0x60 DUP10 ADD MLOAD SWAP5 POP PUSH1 0x80 DUP10 ADD MLOAD SWAP4 POP PUSH3 0x3D9 PUSH1 0xA0 DUP11 ADD PUSH3 0x35E JUMP JUMPDEST SWAP3 POP PUSH3 0x3E9 PUSH1 0xC0 DUP11 ADD PUSH3 0x35E JUMP JUMPDEST SWAP2 POP PUSH3 0x3F9 PUSH1 0xE0 DUP11 ADD PUSH3 0x35E JUMP JUMPDEST SWAP1 POP SWAP3 SWAP6 SWAP9 POP SWAP3 SWAP6 SWAP9 SWAP1 SWAP4 SWAP7 POP JUMP JUMPDEST PUSH2 0xC54 DUP1 PUSH3 0x418 PUSH1 0x0 CODECOPY PUSH1 0x0 RETURN INVALID PUSH1 0x80 PUSH1 0x40 MSTORE CALLVALUE DUP1 ISZERO PUSH2 0x10 JUMPI PUSH1 0x0 DUP1 REVERT JUMPDEST POP PUSH1 0x4 CALLDATASIZE LT PUSH2 0xEA JUMPI PUSH1 0x0 CALLDATALOAD PUSH1 0xE0 SHR DUP1 PUSH4 0xC45A0155 GT PUSH2 0x8C JUMPI DUP1 PUSH4 0xD979F5AA GT PUSH2 0x66 JUMPI DUP1 PUSH4 0xD979F5AA EQ PUSH2 0x1BE JUMPI DUP1 PUSH4 0xDA284DCC EQ PUSH2 0x1D1 JUMPI DUP1 PUSH4 0xDD6CC354 EQ PUSH2 0x1DA JUMPI DUP1 PUSH4 0xE534155D EQ PUSH2 0x1F2 JUMPI PUSH1 0x0 DUP1 REVERT JUMPDEST DUP1 PUSH4 0xC45A0155 EQ PUSH2 0x19A JUMPI DUP1 PUSH4 0xC52987CF EQ PUSH2 0x1AD JUMPI DUP1 PUSH4 0xCD0483EC EQ PUSH2 0x1B6 JUMPI PUSH1 0x0 DUP1 REVERT JUMPDEST DUP1 PUSH4 0x200D2ED2 GT PUSH2 0xC8 JUMPI DUP1 PUSH4 0x200D2ED2 EQ PUSH2 0x13C JUMPI DUP1 PUSH4 0x3D7CC610 EQ PUSH2 0x15D JUMPI DUP1 PUSH4 0x4364B26E EQ PUSH2 0x174 JUMPI DUP1 PUSH4 0x7158DA7C EQ PUSH2 0x187 JUMPI PUSH1 0x0 DUP1 REVERT JUMPDEST DUP1 PUSH4 0x14C68B1B EQ PUSH2 0xEF JUMPI DUP1 PUSH4 0x17D69BC8 EQ PUSH2 0xF9 JUMPI DUP1 PUSH4 0x1D143848 EQ PUSH2 0x129 JUMPI JUMPDEST PUSH1 0x0 DUP1 REVERT JUMPDEST PUSH2 0xF7 PUSH2 0x205 JUMP JUMPDEST STOP JUMPDEST PUSH1 0x2 SLOAD PUSH2 0x10C SWAP1 PUSH1 0x1 PUSH1 0x1 PUSH1 0xA0 SHL SUB AND DUP2 JUMP JUMPDEST PUSH1 0x40 MLOAD PUSH1 0x1 PUSH1 0x1 PUSH1 0xA0 SHL SUB SWAP1 SWAP2 AND DUP2 MSTORE PUSH1 0x20 ADD JUMPDEST PUSH1 0x40 MLOAD DUP1 SWAP2 SUB SWAP1 RETURN JUMPDEST PUSH1 0x6 SLOAD PUSH2 0x10C SWAP1 PUSH1 0x1 PUSH1 0x1 PUSH1 0xA0 SHL SUB AND DUP2 JUMP JUMPDEST PUSH1 0x8 SLOAD PUSH2 0x150 SWAP1 PUSH1 0x1 PUSH1 0xA0 SHL SWAP1 DIV PUSH1 0xFF AND DUP2 JUMP JUMPDEST PUSH1 0x40 MLOAD PUSH2 0x120 SWAP2 SWAP1 PUSH2 0xB23 JUMP JUMPDEST PUSH2 0x166 PUSH1 0x5 SLOAD DUP2 JUMP JUMPDEST PUSH1 0x40 MLOAD SWAP1 DUP2 MSTORE PUSH1 0x20 ADD PUSH2 0x120 JUMP JUMPDEST PUSH2 0xF7 PUSH2 0x182 CALLDATASIZE PUSH1 0x4 PUSH2 0xB4B JUMP JUMPDEST PUSH2 0x5A9 JUMP JUMPDEST PUSH1 0x1 SLOAD PUSH2 0x10C SWAP1 PUSH1 0x1 PUSH1 0x1 PUSH1 0xA0 SHL SUB AND DUP2 JUMP JUMPDEST PUSH1 0x8 SLOAD PUSH2 0x10C SWAP1 PUSH1 0x1 PUSH1 0x1 PUSH1 0xA0 SHL SUB AND DUP2 JUMP JUMPDEST PUSH2 0x166 PUSH1 0x3 SLOAD DUP2 JUMP JUMPDEST PUSH2 0xF7 PUSH2 0x7F5 JUMP JUMPDEST PUSH2 0xF7 PUSH2 0x1CC CALLDATASIZE PUSH1 0x4 PUSH2 0xB64 JUMP JUMPDEST PUSH2 0x8DD JUMP JUMPDEST PUSH2 0x166 PUSH1 0x4 SLOAD DUP2 JUMP JUMPDEST PUSH2 0x1E2 PUSH2 0xA63 JUMP JUMPDEST PUSH1 0x40 MLOAD SWAP1 ISZERO ISZERO DUP2 MSTORE PUSH1 0x20 ADD PUSH2 0x120 JUMP JUMPDEST PUSH1 0x7 SLOAD PUSH2 0x10C SWAP1 PUSH1 0x1 PUSH1 0x1 PUSH1 0xA0 SHL SUB AND DUP2 JUMP JUMPDEST PUSH2 0x20D PUSH2 0xAB4 JUMP JUMPDEST PUSH1 0x7 SLOAD PUSH1 0x1 PUSH1 0x1 PUSH1 0xA0 SHL SUB AND CALLER EQ PUSH2 0x26C JUMPI PUSH1 0x40 MLOAD PUSH3 0x461BCD PUSH1 0xE5 SHL DUP2 MSTORE PUSH1 0x20 PUSH1 0x4 DUP3 ADD MSTORE PUSH1 0x18 PUSH1 0x24 DUP3 ADD MSTORE PUSH32 0x4F6E6C7920686F6C6465722063616E2065786572636973650000000000000000 PUSH1 0x44 DUP3 ADD MSTORE PUSH1 0x64 ADD JUMPDEST PUSH1 0x40 MLOAD DUP1 SWAP2 SUB SWAP1 REVERT JUMPDEST PUSH1 0x1 PUSH1 0x8 SLOAD PUSH1 0x1 PUSH1 0xA0 SHL SWAP1 DIV PUSH1 0xFF AND PUSH1 0x3 DUP2 GT ISZERO PUSH2 0x28C JUMPI PUSH2 0x28C PUSH2 0xB0D JUMP JUMPDEST EQ PUSH2 0x2D1 JUMPI PUSH1 0x40 MLOAD PUSH3 0x461BCD PUSH1 0xE5 SHL DUP2 MSTORE PUSH1 0x20 PUSH1 0x4 DUP3 ADD MSTORE PUSH1 0x15 PUSH1 0x24 DUP3 ADD MSTORE PUSH21 0x4F7074696F6E206D75737420626520616374697665 PUSH1 0x58 SHL PUSH1 0x44 DUP3 ADD MSTORE PUSH1 0x64 ADD PUSH2 0x263 JUMP JUMPDEST PUSH1 0x4 SLOAD TIMESTAMP LT ISZERO PUSH2 0x319 JUMPI PUSH1 0x40 MLOAD PUSH3 0x461BCD PUSH1 0xE5 SHL DUP2 MSTORE PUSH1 0x20 PUSH1 0x4 DUP3 ADD MSTORE PUSH1 0x13 PUSH1 0x24 DUP3 ADD MSTORE PUSH19 0x4E6F7420796574206578657263697361626C65 PUSH1 0x68 SHL PUSH1 0x44 DUP3 ADD MSTORE PUSH1 0x64 ADD PUSH2 0x263 JUMP JUMPDEST PUSH1 0x4 SLOAD PUSH2 0x329 SWAP1 PUSH3 0xD2F00 PUSH2 0xBAA JUMP JUMPDEST TIMESTAMP GT ISZERO PUSH2 0x378 JUMPI PUSH1 0x40 MLOAD PUSH3 0x461BCD PUSH1 0xE5 SHL DUP2 MSTORE PUSH1 0x20 PUSH1 0x4 DUP3 ADD MSTORE PUSH1 0x17 PUSH1 0x24 DUP3 ADD MSTORE PUSH32 0x45786572636973652077696E646F772065787069726564000000000000000000 PUSH1 0x44 DUP3 ADD MSTORE PUSH1 0x64 ADD PUSH2 0x263 JUMP JUMPDEST PUSH1 0x0 PUSH8 0xDE0B6B3A7640000 PUSH1 0x5 SLOAD PUSH1 0x3 SLOAD PUSH2 0x393 SWAP2 SWAP1 PUSH2 0xBC3 JUMP JUMPDEST PUSH2 0x39D SWAP2 SWAP1 PUSH2 0xBDA JUMP JUMPDEST PUSH1 0x2 SLOAD PUSH1 0x7 SLOAD PUSH1 0x6 SLOAD PUSH1 0x40 MLOAD PUSH4 0x23B872DD PUSH1 0xE0 SHL DUP2 MSTORE PUSH1 0x1 PUSH1 0x1 PUSH1 0xA0 SHL SUB SWAP3 DUP4 AND PUSH1 0x4 DUP3 ADD MSTORE SWAP1 DUP3 AND PUSH1 0x24 DUP3 ADD MSTORE PUSH1 0x44 DUP2 ADD DUP5 SWAP1 MSTORE SWAP3 SWAP4 POP PUSH1 0x0 SWAP3 SWAP2 AND SWAP1 PUSH4 0x23B872DD SWAP1 PUSH1 0x64 ADD PUSH1 0x20 PUSH1 0x40 MLOAD DUP1 DUP4 SUB DUP2 PUSH1 0x0 DUP8 GAS CALL ISZERO DUP1 ISZERO PUSH2 0x403 JUMPI RETURNDATASIZE PUSH1 0x0 DUP1 RETURNDATACOPY RETURNDATASIZE PUSH1 0x0 REVERT JUMPDEST POP POP POP POP PUSH1 0x40 MLOAD RETURNDATASIZE PUSH1 0x1F NOT PUSH1 0x1F DUP3 ADD AND DUP3 ADD DUP1 PUSH1 0x40 MSTORE POP DUP2 ADD SWAP1 PUSH2 0x427 SWAP2 SWAP1 PUSH2 0xBFC JUMP JUMPDEST SWAP1 POP DUP1 PUSH2 0x476 JUMPI PUSH1 0x40 MLOAD PUSH3 0x461BCD PUSH1 0xE5 SHL DUP2 MSTORE PUSH1 0x20 PUSH1 0x4 DUP3 ADD MSTORE PUSH1 0x1C PUSH1 0x24 DUP3 ADD MSTORE PUSH32 0x537472696B65206173736574207472616E73666572206661696C656400000000 PUSH1 0x44 DUP3 ADD MSTORE PUSH1 0x64 ADD PUSH2 0x263 JUMP JUMPDEST PUSH1 0x1 SLOAD PUSH1 0x6 SLOAD PUSH1 0x7 SLOAD PUSH1 0x5 SLOAD PUSH1 0x40 MLOAD PUSH4 0x23B872DD PUSH1 0xE0 SHL DUP2 MSTORE PUSH1 0x1 PUSH1 0x1 PUSH1 0xA0 SHL SUB SWAP4 DUP5 AND PUSH1 0x4 DUP3 ADD MSTORE SWAP2 DUP4 AND PUSH1 0x24 DUP4 ADD MSTORE PUSH1 0x44 DUP3 ADD MSTORE PUSH1 0x0 SWAP3 SWAP2 SWAP1 SWAP2 AND SWAP1 PUSH4 0x23B872DD SWAP1 PUSH1 0x64 ADD PUSH1 0x20 PUSH1 0x40 MLOAD DUP1 DUP4 SUB DUP2 PUSH1 0x0 DUP8 GAS CALL ISZERO DUP1 ISZERO PUSH2 0x4DC JUMPI RETURNDATASIZE PUSH1 0x0 DUP1 RETURNDATACOPY RETURNDATASIZE PUSH1 0x0 REVERT JUMPDEST POP POP POP POP PUSH1 0x40 MLOAD RETURNDATASIZE PUSH1 0x1F NOT PUSH1 0x1F DUP3 ADD AND DUP3 ADD DUP1 PUSH1 0x40 MSTORE POP DUP2 ADD SWAP1 PUSH2 0x500 SWAP2 SWAP1 PUSH2 0xBFC JUMP JUMPDEST SWAP1 POP DUP1 PUSH2 0x54F JUMPI PUSH1 0x40 MLOAD PUSH3 0x461BCD PUSH1 0xE5 SHL DUP2 MSTORE PUSH1 0x20 PUSH1 0x4 DUP3 ADD DUP2 SWAP1 MSTORE PUSH1 0x24 DUP3 ADD MSTORE PUSH32 0x556E6465726C79696E67206173736574207472616E73666572206661696C6564 PUSH1 0x44 DUP3 ADD MSTORE PUSH1 0x64 ADD PUSH2 0x263 JUMP JUMPDEST PUSH1 0x8 DUP1 SLOAD PUSH1 0xFF PUSH1 0xA0 SHL NOT AND PUSH1 0x3 PUSH1 0xA0 SHL OR SWAP1 SSTORE PUSH1 0x7 SLOAD PUSH1 0x40 MLOAD PUSH1 0x1 PUSH1 0x1 PUSH1 0xA0 SHL SUB SWAP1 SWAP2 AND SWAP1 PUSH32 0xFA515CE210CD6E58126346CE95F93DC7E0DCB998C26907C944766966B12F44EA SWAP1 PUSH1 0x0 SWAP1 LOG2 POP POP POP PUSH2 0x5A7 PUSH1 0x1 PUSH1 0x0 SSTORE JUMP JUMPDEST JUMP JUMPDEST PUSH2 0x5B1 PUSH2 0xAB4 JUMP JUMPDEST PUSH1 0x7 SLOAD PUSH1 0x1 PUSH1 0x1 PUSH1 0xA0 SHL SUB AND CALLER EQ PUSH2 0x60B JUMPI PUSH1 0x40 MLOAD PUSH3 0x461BCD PUSH1 0xE5 SHL DUP2 MSTORE PUSH1 0x20 PUSH1 0x4 DUP3 ADD MSTORE PUSH1 0x1B PUSH1 0x24 DUP3 ADD MSTORE PUSH32 0x4F6E6C7920686F6C6465722063616E20706179207072656D69756D0000000000 PUSH1 0x44 DUP3 ADD MSTORE PUSH1 0x64 ADD PUSH2 0x263 JUMP JUMPDEST PUSH1 0x0 PUSH1 0x8 SLOAD PUSH1 0x1 PUSH1 0xA0 SHL SWAP1 DIV PUSH1 0xFF AND PUSH1 0x3 DUP2 GT ISZERO PUSH2 0x62B JUMPI PUSH2 0x62B PUSH2 0xB0D JUMP JUMPDEST EQ PUSH2 0x678 JUMPI PUSH1 0x40 MLOAD PUSH3 0x461BCD PUSH1 0xE5 SHL DUP2 MSTORE PUSH1 0x20 PUSH1 0x4 DUP3 ADD MSTORE PUSH1 0x1F PUSH1 0x24 DUP3 ADD MSTORE PUSH32 0x4F7074696F6E206D75737420626520696E204372656174656420737461746500 PUSH1 0x44 DUP3 ADD MSTORE PUSH1 0x64 ADD PUSH2 0x263 JUMP JUMPDEST PUSH1 0x0 DUP2 GT PUSH2 0x6C8 JUMPI PUSH1 0x40 MLOAD PUSH3 0x461BCD PUSH1 0xE5 SHL DUP2 MSTORE PUSH1 0x20 PUSH1 0x4 DUP3 ADD MSTORE PUSH1 0x1E PUSH1 0x24 DUP3 ADD MSTORE PUSH32 0x5072656D69756D206D7573742062652067726561746572207468616E20300000 PUSH1 0x44 DUP3 ADD MSTORE PUSH1 0x64 ADD PUSH2 0x263 JUMP JUMPDEST PUSH1 0x2 SLOAD PUSH1 0x7 SLOAD PUSH1 0x6 SLOAD PUSH1 0x40 MLOAD PUSH4 0x23B872DD PUSH1 0xE0 SHL DUP2 MSTORE PUSH1 0x1 PUSH1 0x1 PUSH1 0xA0 SHL SUB SWAP3 DUP4 AND PUSH1 0x4 DUP3 ADD MSTORE SWAP1 DUP3 AND PUSH1 0x24 DUP3 ADD MSTORE PUSH1 0x44 DUP2 ADD DUP5 SWAP1 MSTORE PUSH1 0x0 SWAP3 SWAP2 SWAP1 SWAP2 AND SWAP1 PUSH4 0x23B872DD SWAP1 PUSH1 0x64 ADD PUSH1 0x20 PUSH1 0x40 MLOAD DUP1 DUP4 SUB DUP2 PUSH1 0x0 DUP8 GAS CALL ISZERO DUP1 ISZERO PUSH2 0x72D JUMPI RETURNDATASIZE PUSH1 0x0 DUP1 RETURNDATACOPY RETURNDATASIZE PUSH1 0x0 REVERT JUMPDEST POP POP POP POP PUSH1 0x40 MLOAD RETURNDATASIZE PUSH1 0x1F NOT PUSH1 0x1F DUP3 ADD AND DUP3 ADD DUP1 PUSH1 0x40 MSTORE POP DUP2 ADD SWAP1 PUSH2 0x751 SWAP2 SWAP1 PUSH2 0xBFC JUMP JUMPDEST SWAP1 POP DUP1 PUSH2 0x792 JUMPI PUSH1 0x40 MLOAD PUSH3 0x461BCD PUSH1 0xE5 SHL DUP2 MSTORE PUSH1 0x20 PUSH1 0x4 DUP3 ADD MSTORE PUSH1 0xF PUSH1 0x24 DUP3 ADD MSTORE PUSH15 0x151C985B9CD9995C8819985A5B1959 PUSH1 0x8A SHL PUSH1 0x44 DUP3 ADD MSTORE PUSH1 0x64 ADD PUSH2 0x263 JUMP JUMPDEST PUSH1 0x8 DUP1 SLOAD PUSH1 0xFF PUSH1 0xA0 SHL NOT AND PUSH1 0x1 PUSH1 0xA0 SHL OR SWAP1 SSTORE PUSH1 0x7 SLOAD PUSH1 0x40 DUP1 MLOAD DUP5 DUP2 MSTORE SWAP1 MLOAD PUSH1 0x1 PUSH1 0x1 PUSH1 0xA0 SHL SUB SWAP1 SWAP3 AND SWAP2 PUSH32 0xA21795436A9F6A3B412FD6780F01A49907F2181E76E938496B0A41991D99B61C SWAP2 DUP2 SWAP1 SUB PUSH1 0x20 ADD SWAP1 LOG2 POP PUSH2 0x7F2 PUSH1 0x1 PUSH1 0x0 SSTORE JUMP JUMPDEST POP JUMP JUMPDEST PUSH1 0x0 PUSH1 0x8 SLOAD PUSH1 0x1 PUSH1 0xA0 SHL SWAP1 DIV PUSH1 0xFF AND PUSH1 0x3 DUP2 GT ISZERO PUSH2 0x815 JUMPI PUSH2 0x815 PUSH2 0xB0D JUMP JUMPDEST EQ DUP1 PUSH2 0x83E JUMPI POP PUSH1 0x1 PUSH1 0x8 SLOAD PUSH1 0x1 PUSH1 0xA0 SHL SWAP1 DIV PUSH1 0xFF AND PUSH1 0x3 DUP2 GT ISZERO PUSH2 0x83C JUMPI PUSH2 0x83C PUSH2 0xB0D JUMP JUMPDEST EQ JUMPDEST PUSH2 0x89D JUMPI PUSH1 0x40 MLOAD PUSH3 0x461BCD PUSH1 0xE5 SHL DUP2 MSTORE PUSH1 0x20 PUSH1 0x4 DUP3 ADD MSTORE PUSH1 0x2A PUSH1 0x24 DUP3 ADD MSTORE PUSH32 0x4F7074696F6E206D7573742062652043726561746564206F7220416374697665 PUSH1 0x44 DUP3 ADD MSTORE PUSH10 0x20746F20657870697265 PUSH1 0xB0 SHL PUSH1 0x64 DUP3 ADD MSTORE PUSH1 0x84 ADD PUSH2 0x263 JUMP JUMPDEST PUSH1 0x8 DUP1 SLOAD PUSH1 0xFF PUSH1 0xA0 SHL NOT AND PUSH1 0x1 PUSH1 0xA1 SHL OR SWAP1 SSTORE PUSH1 0x40 MLOAD CALLER SWAP1 PUSH32 0xA64AEA50FFA4E1713D00DB76DEE2154E493A0E94B75EEFA4B7F4F00248CCFA20 SWAP1 PUSH1 0x0 SWAP1 LOG2 JUMP JUMPDEST PUSH1 0x8 SLOAD PUSH1 0x1 PUSH1 0x1 PUSH1 0xA0 SHL SUB AND CALLER EQ PUSH2 0x937 JUMPI PUSH1 0x40 MLOAD PUSH3 0x461BCD PUSH1 0xE5 SHL DUP2 MSTORE PUSH1 0x20 PUSH1 0x4 DUP3 ADD MSTORE PUSH1 0x1B PUSH1 0x24 DUP3 ADD MSTORE PUSH32 0x4F6E6C7920666163746F72792063616E2073657420686F6C6465720000000000 PUSH1 0x44 DUP3 ADD MSTORE PUSH1 0x64 ADD PUSH2 0x263 JUMP JUMPDEST PUSH1 0x1 PUSH1 0x1 PUSH1 0xA0 SHL SUB DUP2 AND PUSH2 0x986 JUMPI PUSH1 0x40 MLOAD PUSH3 0x461BCD PUSH1 0xE5 SHL DUP2 MSTORE PUSH1 0x20 PUSH1 0x4 DUP3 ADD MSTORE PUSH1 0x16 PUSH1 0x24 DUP3 ADD MSTORE PUSH22 0x496E76616C696420686F6C6465722061646472657373 PUSH1 0x50 SHL PUSH1 0x44 DUP3 ADD MSTORE PUSH1 0x64 ADD PUSH2 0x263 JUMP JUMPDEST PUSH1 0x7 SLOAD PUSH1 0x1 PUSH1 0x1 PUSH1 0xA0 SHL SUB AND ISZERO PUSH2 0x9D4 JUMPI PUSH1 0x40 MLOAD PUSH3 0x461BCD PUSH1 0xE5 SHL DUP2 MSTORE PUSH1 0x20 PUSH1 0x4 DUP3 ADD MSTORE PUSH1 0x12 PUSH1 0x24 DUP3 ADD MSTORE PUSH18 0x121BDB19195C88185B1C9958591E481CD95D PUSH1 0x72 SHL PUSH1 0x44 DUP3 ADD MSTORE PUSH1 0x64 ADD PUSH2 0x263 JUMP JUMPDEST PUSH1 0x0 PUSH1 0x8 SLOAD PUSH1 0x1 PUSH1 0xA0 SHL SWAP1 DIV PUSH1 0xFF AND PUSH1 0x3 DUP2 GT ISZERO PUSH2 0x9F4 JUMPI PUSH2 0x9F4 PUSH2 0xB0D JUMP JUMPDEST EQ PUSH2 0xA41 JUMPI PUSH1 0x40 MLOAD PUSH3 0x461BCD PUSH1 0xE5 SHL DUP2 MSTORE PUSH1 0x20 PUSH1 0x4 DUP3 ADD MSTORE PUSH1 0x1F PUSH1 0x24 DUP3 ADD MSTORE PUSH32 0x4F7074696F6E206D75737420626520696E204372656174656420737461746500 PUSH1 0x44 DUP3 ADD MSTORE PUSH1 0x64 ADD PUSH2 0x263 JUMP JUMPDEST PUSH1 0x7 DUP1 SLOAD PUSH1 0x1 PUSH1 0x1 PUSH1 0xA0 SHL SUB NOT AND PUSH1 0x1 PUSH1 0x1 PUSH1 0xA0 SHL SUB SWAP3 SWAP1 SWAP3 AND SWAP2 SWAP1 SWAP2 OR SWAP1 SSTORE JUMP JUMPDEST PUSH1 0x0 PUSH1 0x1 PUSH1 0x8 SLOAD PUSH1 0x1 PUSH1 0xA0 SHL SWAP1 DIV PUSH1 0xFF AND PUSH1 0x3 DUP2 GT ISZERO PUSH2 0xA85 JUMPI PUSH2 0xA85 PUSH2 0xB0D JUMP JUMPDEST EQ DUP1 ISZERO PUSH2 0xA94 JUMPI POP PUSH1 0x4 SLOAD TIMESTAMP LT ISZERO JUMPDEST DUP1 ISZERO PUSH2 0xAAF JUMPI POP PUSH1 0x4 SLOAD PUSH2 0xAAB SWAP1 PUSH3 0xD2F00 PUSH2 0xBAA JUMP JUMPDEST TIMESTAMP GT ISZERO JUMPDEST SWAP1 POP SWAP1 JUMP JUMPDEST PUSH1 0x2 PUSH1 0x0 SLOAD SUB PUSH2 0xB06 JUMPI PUSH1 0x40 MLOAD PUSH3 0x461BCD PUSH1 0xE5 SHL DUP2 MSTORE PUSH1 0x20 PUSH1 0x4 DUP3 ADD MSTORE PUSH1 0x1F PUSH1 0x24 DUP3 ADD MSTORE PUSH32 0x5265656E7472616E637947756172643A207265656E7472616E742063616C6C00 PUSH1 0x44 DUP3 ADD MSTORE PUSH1 0x64 ADD PUSH2 0x263 JUMP JUMPDEST PUSH1 0x2 PUSH1 0x0 SSTORE JUMP JUMPDEST PUSH4 0x4E487B71 PUSH1 0xE0 SHL PUSH1 0x0 MSTORE PUSH1 0x21 PUSH1 0x4 MSTORE PUSH1 0x24 PUSH1 0x0 REVERT JUMPDEST PUSH1 0x20 DUP2 ADD PUSH1 0x4 DUP4 LT PUSH2 0xB45 JUMPI PUSH4 0x4E487B71 PUSH1 0xE0 SHL PUSH1 0x0 MSTORE PUSH1 0x21 PUSH1 0x4 MSTORE PUSH1 0x24 PUSH1 0x0 REVERT JUMPDEST SWAP2 SWAP1 MSTORE SWAP1 JUMP JUMPDEST PUSH1 0x0 PUSH1 0x20 DUP3 DUP5 SUB SLT ISZERO PUSH2 0xB5D JUMPI PUSH1 0x0 DUP1 REVERT JUMPDEST POP CALLDATALOAD SWAP2 SWAP1 POP JUMP JUMPDEST PUSH1 0x0 PUSH1 0x20 DUP3 DUP5 SUB SLT ISZERO PUSH2 0xB76 JUMPI PUSH1 0x0 DUP1 REVERT JUMPDEST DUP2 CALLDATALOAD PUSH1 0x1 PUSH1 0x1 PUSH1 0xA0 SHL SUB DUP2 AND DUP2 EQ PUSH2 0xB8D JUMPI PUSH1 0x0 DUP1 REVERT JUMPDEST SWAP4 SWAP3 POP POP POP JUMP JUMPDEST PUSH4 0x4E487B71 PUSH1 0xE0 SHL PUSH1 0x0 MSTORE PUSH1 0x11 PUSH1 0x4 MSTORE PUSH1 0x24 PUSH1 0x0 REVERT JUMPDEST DUP1 DUP3 ADD DUP1 DUP3 GT ISZERO PUSH2 0xBBD JUMPI PUSH2 0xBBD PUSH2 0xB94 JUMP JUMPDEST SWAP3 SWAP2 POP POP JUMP JUMPDEST DUP1 DUP3 MUL DUP2 ISZERO DUP3 DUP3 DIV DUP5 EQ OR PUSH2 0xBBD JUMPI PUSH2 0xBBD PUSH2 0xB94 JUMP JUMPDEST PUSH1 0x0 DUP3 PUSH2 0xBF7 JUMPI PUSH4 0x4E487B71 PUSH1 0xE0 SHL PUSH1 0x0 MSTORE PUSH1 0x12 PUSH1 0x4 MSTORE PUSH1 0x24 PUSH1 0x0 REVERT JUMPDEST POP DIV SWAP1 JUMP JUMPDEST PUSH1 0x0 PUSH1 0x20 DUP3 DUP5 SUB SLT ISZERO PUSH2 0xC0E JUMPI PUSH1 0x0 DUP1 REVERT JUMPDEST DUP2 MLOAD DUP1 ISZERO ISZERO DUP2 EQ PUSH2 0xB8D JUMPI PUSH1 0x0 DUP1 REVERT INVALID LOG2 PUSH5 0x6970667358 0x22 SLT KECCAK256 PUSH11 0xCDAA93686A72CCF7BCC96D PUSH26 0xF36094BF2300BD410E870308F4EF7059F957C964736F6C634300 ADDMOD SGT STOP CALLER "},"methodIdentifiers":{"contractSize()":"3d7cc610","exercised()":"14c68b1b","expirationTime()":"da284dcc","expireOption()":"cd0483ec","factory()":"c45a0155","holder()":"e534155d","isExercisable()":"dd6cc354","issuer()":"1d143848","payPremium(uint256)":"4364b26e","setHolder(address)":"d979f5aa","status()":"200d2ed2","strikeAsset()":"17d69bc8","strikePrice()":"c52987cf","underlyingAsset()":"7158da7c"}}}}}