{
  "_format": "hh-sol-artifact-1",
  "contractName": "OptionFactory",
  "sourceName": "contracts/OptionFactory.sol",
  "abi": [
    {
      "anonymous": false,
      "inputs": [
        {
          "indexed": true,
          "internalType": "uint256",
          "name": "optionId",
          "type": "uint256"
        },
        {
          "indexed": true,
          "internalType": "address",
          "name": "optionAddress",
          "type": "address"
        },
        {
          "indexed": true,
          "internalType": "address",
          "name": "issuer",
          "type": "address"
        },
        {
          "indexed": false,
          "internalType": "address",
          "name": "underlyingAsset",
          "type": "address"
        },
        {
          "indexed": false,
          "internalType": "address",
          "name": "strikeAsset",
          "type": "address"
        },
        {
          "indexed": false,
          "internalType": "uint256",
          "name": "strikePrice",
          "type": "uint256"
        },
        {
          "indexed": false,
          "internalType": "uint256",
          "name": "expirationTime",
          "type": "uint256"
        },
        {
          "indexed": false,
          "internalType": "uint256",
          "name": "contractSize",
          "type": "uint256"
        }
      ],
      "name": "OptionCreated",
      "type": "event"
    },
    {
      "anonymous": false,
      "inputs": [
        {
          "indexed": true,
          "internalType": "uint256",
          "name": "optionId",
          "type": "uint256"
        },
        {
          "indexed": true,
          "internalType": "address",
          "name": "optionAddress",
          "type": "address"
        },
        {
          "indexed": true,
          "internalType": "address",
          "name": "holder",
          "type": "address"
        }
      ],
      "name": "OptionMatched",
      "type": "event"
    },
    {
      "inputs": [
        {
          "internalType": "address",
          "name": "_underlyingAsset",
          "type": "address"
        },
        {
          "internalType": "address",
          "name": "_strikeAsset",
          "type": "address"
        },
        {
          "internalType": "uint256",
          "name": "_strikePrice",
          "type": "uint256"
        },
        {
          "internalType": "uint256",
          "name": "_expirationTime",
          "type": "uint256"
        },
        {
          "internalType": "uint256",
          "name": "_contractSize",
          "type": "uint256"
        }
      ],
      "name": "createOption",
      "outputs": [
        {
          "internalType": "uint256",
          "name": "optionId",
          "type": "uint256"
        },
        {
          "internalType": "address",
          "name": "optionAddress",
          "type": "address"
        }
      ],
      "stateMutability": "nonpayable",
      "type": "function"
    },
    {
      "inputs": [],
      "name": "getAllOptions",
      "outputs": [
        {
          "internalType": "address[]",
          "name": "addresses",
          "type": "address[]"
        }
      ],
      "stateMutability": "view",
      "type": "function"
    },
    {
      "inputs": [],
      "name": "getMatchableOptions",
      "outputs": [
        {
          "internalType": "address[]",
          "name": "addresses",
          "type": "address[]"
        }
      ],
      "stateMutability": "view",
      "type": "function"
    },
    {
      "inputs": [],
      "name": "getOptionCount",
      "outputs": [
        {
          "internalType": "uint256",
          "name": "count",
          "type": "uint256"
        }
      ],
      "stateMutability": "view",
      "type": "function"
    },
    {
      "inputs": [
        {
          "internalType": "address",
          "name": "_optionAddress",
          "type": "address"
        }
      ],
      "name": "getOptionInfo",
      "outputs": [
        {
          "components": [
            {
              "internalType": "address",
              "name": "optionAddress",
              "type": "address"
            },
            {
              "internalType": "address",
              "name": "issuer",
              "type": "address"
            },
            {
              "internalType": "address",
              "name": "holder",
              "type": "address"
            },
            {
              "internalType": "uint256",
              "name": "createdAt",
              "type": "uint256"
            },
            {
              "internalType": "bool",
              "name": "exists",
              "type": "bool"
            }
          ],
          "internalType": "struct OptionFactory.OptionInfo",
          "name": "info",
          "type": "tuple"
        }
      ],
      "stateMutability": "view",
      "type": "function"
    },
    {
      "inputs": [
        {
          "internalType": "address",
          "name": "_user",
          "type": "address"
        }
      ],
      "name": "getUserCreatedOptions",
      "outputs": [
        {
          "internalType": "address[]",
          "name": "addresses",
          "type": "address[]"
        }
      ],
      "stateMutability": "view",
      "type": "function"
    },
    {
      "inputs": [
        {
          "internalType": "address",
          "name": "_optionAddress",
          "type": "address"
        }
      ],
      "name": "matchOption",
      "outputs": [],
      "stateMutability": "nonpayable",
      "type": "function"
    },
    {
      "inputs": [
        {
          "internalType": "address",
          "name": "",
          "type": "address"
        }
      ],
      "name": "optionIndex",
      "outputs": [
        {
          "internalType": "uint256",
          "name": "",
          "type": "uint256"
        }
      ],
      "stateMutability": "view",
      "type": "function"
    },
    {
      "inputs": [
        {
          "internalType": "uint256",
          "name": "",
          "type": "uint256"
        }
      ],
      "name": "options",
      "outputs": [
        {
          "internalType": "address",
          "name": "optionAddress",
          "type": "address"
        },
        {
          "internalType": "address",
          "name": "issuer",
          "type": "address"
        },
        {
          "internalType": "address",
          "name": "holder",
          "type": "address"
        },
        {
          "internalType": "uint256",
          "name": "createdAt",
          "type": "uint256"
        },
        {
          "internalType": "bool",
          "name": "exists",
          "type": "bool"
        }
      ],
      "stateMutability": "view",
      "type": "function"
    },
    {
      "inputs": [
        {
          "internalType": "address",
          "name": "",
          "type": "address"
        },
        {
          "internalType": "uint256",
          "name": "",
          "type": "uint256"
        }
      ],
      "name": "userCreatedOptions",
      "outputs": [
        {
          "internalType": "address",
          "name": "",
          "type": "address"
        }
      ],
      "stateMutability": "view",
      "type": "function"
    }
  ],
  "bytecode": "0x608060405234801561001057600080fd5b50612161806100206000396000f3fe60806040523480156200001157600080fd5b5060043610620000ab5760003560e01c80634b4b0d37116200006e5780634b4b0d37146200019c578063a6bd542714620001a6578063b491827214620001b9578063b602d73a14620001dc578063f6e6cc45146200024057600080fd5b806310393dfb14620000b05780631c68bdf214620000e95780633312cfb21462000102578063409e2205146200011b57806349f2de8d146200016c575b600080fd5b620000c7620000c136600462000ef6565b62000257565b604080519283526001600160a01b039091166020830152015b60405180910390f35b62000100620000fa36600462000f48565b620004ce565b005b6200010c620007e7565b604051620000e0919062000f6d565b620001326200012c36600462000fbc565b62000b53565b604080516001600160a01b039687168152948616602086015292909416918301919091526060820152901515608082015260a001620000e0565b620001836200017d36600462000fd6565b62000ba6565b6040516001600160a01b039091168152602001620000e0565b6200010c62000bdf565b6000545b604051908152602001620000e0565b620001aa620001ca36600462000f48565b60016020526000908152604090205481565b620001f3620001ed36600462000f48565b62000cb6565b6040805182516001600160a01b0390811682526020808501518216908301528383015116918101919091526060808301519082015260809182015115159181019190915260a001620000e0565b6200010c6200025136600462000f48565b62000e53565b6000806000878787878760003330604051620002739062000ecb565b6001600160a01b0398891681529688166020880152604087019590955260608601939093526080850191909152841660a0840152831660c083015290911660e082015261010001604051809103906000f080158015620002d7573d6000803e3d6000fd5b50600080546040805160a0810182526001600160a01b038086168083523360208085018281528587018981524260608801908152600160808901818152818c018d558c8052985160058c027f290decd9548b62a8d60345a988386fc84ba6bc95484008f6362f93160ef3e56381018054928b166001600160a01b031993841617905594517f290decd9548b62a8d60345a988386fc84ba6bc95484008f6362f93160ef3e56486018054918b1691831691909117905592517f290decd9548b62a8d60345a988386fc84ba6bc95484008f6362f93160ef3e565850180549190991690841617909755517f290decd9548b62a8d60345a988386fc84ba6bc95484008f6362f93160ef3e56683015595517f290decd9548b62a8d60345a988386fc84ba6bc95484008f6362f93160ef3e567909101805491151560ff199092169190911790558288528381528588208790558188526002815285882080549485018155885290962090910180549092168117909155905191965092945084935090919085907f995116189e7c7d6d93b9f42a34777ef2c1de0254ac43e485c27266a7c86385fb90620004bb908d908d908d908d908d906001600160a01b03958616815293909416602084015260408301919091526060820152608081019190915260a00190565b60405180910390a4509550959350505050565b6001600160a01b038116620005235760405162461bcd60e51b8152602060048201526016602482015275496e76616c6964206f7074696f6e206164647265737360501b60448201526064015b60405180910390fd5b6001600160a01b03811660009081526001602052604090205480158015906200054d575060005481105b80620005a857508015801562000564575060005415155b8015620005a85750816001600160a01b0316600080815481106200058c576200058c62001003565b60009182526020909120600590910201546001600160a01b0316145b620005c75760405162461bcd60e51b81526004016200051a9062001019565b6000808281548110620005de57620005de62001003565b60009182526020909120600590910201600481015490915060ff16620006185760405162461bcd60e51b81526004016200051a9062001019565b60028101546001600160a01b0316156200066e5760405162461bcd60e51b815260206004820152601660248201527513dc1d1a5bdb88185b1c9958591e481b585d18da195960521b60448201526064016200051a565b826000816001600160a01b031663200d2ed26040518163ffffffff1660e01b8152600401602060405180830381865afa158015620006b0573d6000803e3d6000fd5b505050506040513d601f19601f82011682018060405250810190620006d691906200105e565b6003811115620006ea57620006ea62001048565b14620007395760405162461bcd60e51b815260206004820152601f60248201527f4f7074696f6e206d75737420626520696e20437265617465642073746174650060448201526064016200051a565b604051636cbcfad560e11b81523360048201526001600160a01b0382169063d979f5aa90602401600060405180830381600087803b1580156200077b57600080fd5b505af115801562000790573d6000803e3d6000fd5b505050506002820180546001600160a01b031916339081179091556040516001600160a01b0386169085907f19a046951684db1f8ee351a110184f466cd59648748e30eaf80d8e1ee75f763e90600090a450505050565b60606000805b6000548110156200094557600081815481106200080e576200080e62001003565b600091825260209091206004600590920201015460ff1680156200086d575060006001600160a01b0316600082815481106200084e576200084e62001003565b60009182526020909120600260059092020101546001600160a01b0316145b1562000930576000818154811062000889576200088962001003565b60009182526020918290206005909102015460408051631006976960e11b815290516001600160a01b039092169263200d2ed2926004808401938290030181865afa925050508015620008fb575060408051601f3d908101601f19168201909252620008f8918101906200105e565b60015b156200093057600081600381111562000918576200091862001048565b036200092e57826200092a8162001081565b9350505b505b806200093c8162001081565b915050620007ed565b508067ffffffffffffffff811115620009625762000962620010a9565b6040519080825280602002602001820160405280156200098c578160200160208202803683370190505b5091506000805b60005481101562000b4d5760008181548110620009b457620009b462001003565b600091825260209091206004600590920201015460ff16801562000a13575060006001600160a01b031660008281548110620009f457620009f462001003565b60009182526020909120600260059092020101546001600160a01b0316145b1562000b38576000818154811062000a2f5762000a2f62001003565b60009182526020918290206005909102015460408051631006976960e11b815290516001600160a01b039092169263200d2ed2926004808401938290030181865afa92505050801562000aa1575060408051601f3d908101601f1916820190925262000a9e918101906200105e565b60015b1562000b3857600081600381111562000abe5762000abe62001048565b0362000b36576000828154811062000ada5762000ada62001003565b600091825260209091206005909102015485516001600160a01b039091169086908590811062000b0e5762000b0e62001003565b6001600160a01b03909216602092830291909101909101528262000b328162001081565b9350505b505b8062000b448162001081565b91505062000993565b50505090565b6000818154811062000b6457600080fd5b6000918252602090912060059091020180546001820154600283015460038401546004909401546001600160a01b039384169550918316939216919060ff1685565b6002602052816000526040600020818154811062000bc357600080fd5b6000918252602090912001546001600160a01b03169150829050565b60005460609067ffffffffffffffff81111562000c005762000c00620010a9565b60405190808252806020026020018201604052801562000c2a578160200160208202803683370190505b50905060005b60005481101562000cb2576000818154811062000c515762000c5162001003565b600091825260209091206005909102015482516001600160a01b039091169083908390811062000c855762000c8562001003565b6001600160a01b03909216602092830291909101909101528062000ca98162001081565b91505062000c30565b5090565b6040805160a0810182526000808252602082018190529181018290526060810182905260808101919091526001600160a01b03821662000d325760405162461bcd60e51b8152602060048201526016602482015275496e76616c6964206f7074696f6e206164647265737360501b60448201526064016200051a565b6001600160a01b038216600090815260016020526040902054801580159062000d5c575060005481105b8062000db757508015801562000d73575060005415155b801562000db75750826001600160a01b03166000808154811062000d9b5762000d9b62001003565b60009182526020909120600590910201546001600160a01b0316145b62000dd65760405162461bcd60e51b81526004016200051a9062001019565b6000818154811062000dec5762000dec62001003565b60009182526020918290206040805160a081018252600590930290910180546001600160a01b03908116845260018201548116948401949094526002810154909316908201526003820154606082015260049091015460ff16151560808201529392505050565b6001600160a01b03811660009081526002602090815260409182902080548351818402810184019094528084526060939283018282801562000ebf57602002820191906000526020600020905b81546001600160a01b0316815260019091019060200180831162000ea0575b50505050509050919050565b61106c80620010c083390190565b80356001600160a01b038116811462000ef157600080fd5b919050565b600080600080600060a0868803121562000f0f57600080fd5b62000f1a8662000ed9565b945062000f2a6020870162000ed9565b94979496505050506040830135926060810135926080909101359150565b60006020828403121562000f5b57600080fd5b62000f668262000ed9565b9392505050565b6020808252825182820181905260009190848201906040850190845b8181101562000fb05783516001600160a01b03168352928401929184019160010162000f89565b50909695505050505050565b60006020828403121562000fcf57600080fd5b5035919050565b6000806040838503121562000fea57600080fd5b62000ff58362000ed9565b946020939093013593505050565b634e487b7160e01b600052603260045260246000fd5b60208082526015908201527413dc1d1a5bdb88191bd95cc81b9bdd08195e1a5cdd605a1b604082015260600190565b634e487b7160e01b600052602160045260246000fd5b6000602082840312156200107157600080fd5b81516004811062000f6657600080fd5b600060018201620010a257634e487b7160e01b600052601160045260246000fd5b5060010190565b634e487b7160e01b600052604160045260246000fdfe60806040523480156200001157600080fd5b506040516200106c3803806200106c83398101604081905262000034916200037b565b60016000556001600160a01b038816620000955760405162461bcd60e51b815260206004820152601860248201527f496e76616c696420756e6465726c79696e67206173736574000000000000000060448201526064015b60405180910390fd5b6001600160a01b038716620000ed5760405162461bcd60e51b815260206004820152601460248201527f496e76616c696420737472696b6520617373657400000000000000000000000060448201526064016200008c565b600086116200014b5760405162461bcd60e51b815260206004820152602360248201527f537472696b65207072696365206d75737420626520677265617465722074686160448201526206e20360ec1b60648201526084016200008c565b428511620001aa5760405162461bcd60e51b815260206004820152602560248201527f45787069726174696f6e2074696d65206d75737420626520696e207468652066604482015264757475726560d81b60648201526084016200008c565b60008411620002085760405162461bcd60e51b8152602060048201526024808201527f436f6e74726163742073697a65206d75737420626520677265617465722074686044820152630616e20360e41b60648201526084016200008c565b6001600160a01b038216620002605760405162461bcd60e51b815260206004820152601660248201527f496e76616c69642069737375657220616464726573730000000000000000000060448201526064016200008c565b6001600160a01b038116620002b85760405162461bcd60e51b815260206004820152601760248201527f496e76616c696420666163746f7279206164647265737300000000000000000060448201526064016200008c565b600180546001600160a01b038a81166001600160a01b031992831617909255600280548a841690831617905560038890556004879055600586905560078054868416908316811790915560068054868516931683179055600880546001600160a81b031916938516939093179092556040517fbfb6fe20509a93711e236e88c56666be96d2d9f508df251f39a8af0de09ca6c690600090a3505050505050505062000408565b80516001600160a01b03811681146200037657600080fd5b919050565b600080600080600080600080610100898b0312156200039957600080fd5b620003a4896200035e565b9750620003b460208a016200035e565b9650604089015195506060890151945060808901519350620003d960a08a016200035e565b9250620003e960c08a016200035e565b9150620003f960e08a016200035e565b90509295985092959890939650565b610c5480620004186000396000f3fe608060405234801561001057600080fd5b50600436106100ea5760003560e01c8063c45a01551161008c578063d979f5aa11610066578063d979f5aa146101be578063da284dcc146101d1578063dd6cc354146101da578063e534155d146101f257600080fd5b8063c45a01551461019a578063c52987cf146101ad578063cd0483ec146101b657600080fd5b8063200d2ed2116100c8578063200d2ed21461013c5780633d7cc6101461015d5780634364b26e146101745780637158da7c1461018757600080fd5b806314c68b1b146100ef57806317d69bc8146100f95780631d14384814610129575b600080fd5b6100f7610205565b005b60025461010c906001600160a01b031681565b6040516001600160a01b0390911681526020015b60405180910390f35b60065461010c906001600160a01b031681565b60085461015090600160a01b900460ff1681565b6040516101209190610b23565b61016660055481565b604051908152602001610120565b6100f7610182366004610b4b565b6105a9565b60015461010c906001600160a01b031681565b60085461010c906001600160a01b031681565b61016660035481565b6100f76107f5565b6100f76101cc366004610b64565b6108dd565b61016660045481565b6101e2610a63565b6040519015158152602001610120565b60075461010c906001600160a01b031681565b61020d610ab4565b6007546001600160a01b0316331461026c5760405162461bcd60e51b815260206004820152601860248201527f4f6e6c7920686f6c6465722063616e206578657263697365000000000000000060448201526064015b60405180910390fd5b6001600854600160a01b900460ff16600381111561028c5761028c610b0d565b146102d15760405162461bcd60e51b81526020600482015260156024820152744f7074696f6e206d7573742062652061637469766560581b6044820152606401610263565b6004544210156103195760405162461bcd60e51b81526020600482015260136024820152724e6f7420796574206578657263697361626c6560681b6044820152606401610263565b60045461032990620d2f00610baa565b4211156103785760405162461bcd60e51b815260206004820152601760248201527f45786572636973652077696e646f7720657870697265640000000000000000006044820152606401610263565b6000670de0b6b3a76400006005546003546103939190610bc3565b61039d9190610bda565b6002546007546006546040516323b872dd60e01b81526001600160a01b0392831660048201529082166024820152604481018490529293506000929116906323b872dd906064016020604051808303816000875af1158015610403573d6000803e3d6000fd5b505050506040513d601f19601f820116820180604052508101906104279190610bfc565b9050806104765760405162461bcd60e51b815260206004820152601c60248201527f537472696b65206173736574207472616e73666572206661696c6564000000006044820152606401610263565b6001546006546007546005546040516323b872dd60e01b81526001600160a01b0393841660048201529183166024830152604482015260009291909116906323b872dd906064016020604051808303816000875af11580156104dc573d6000803e3d6000fd5b505050506040513d601f19601f820116820180604052508101906105009190610bfc565b90508061054f5760405162461bcd60e51b815260206004820181905260248201527f556e6465726c79696e67206173736574207472616e73666572206661696c65646044820152606401610263565b6008805460ff60a01b1916600360a01b1790556007546040516001600160a01b03909116907ffa515ce210cd6e58126346ce95f93dc7e0dcb998c26907c944766966b12f44ea90600090a25050506105a76001600055565b565b6105b1610ab4565b6007546001600160a01b0316331461060b5760405162461bcd60e51b815260206004820152601b60248201527f4f6e6c7920686f6c6465722063616e20706179207072656d69756d00000000006044820152606401610263565b6000600854600160a01b900460ff16600381111561062b5761062b610b0d565b146106785760405162461bcd60e51b815260206004820152601f60248201527f4f7074696f6e206d75737420626520696e2043726561746564207374617465006044820152606401610263565b600081116106c85760405162461bcd60e51b815260206004820152601e60248201527f5072656d69756d206d7573742062652067726561746572207468616e203000006044820152606401610263565b6002546007546006546040516323b872dd60e01b81526001600160a01b03928316600482015290821660248201526044810184905260009291909116906323b872dd906064016020604051808303816000875af115801561072d573d6000803e3d6000fd5b505050506040513d601f19601f820116820180604052508101906107519190610bfc565b9050806107925760405162461bcd60e51b815260206004820152600f60248201526e151c985b9cd9995c8819985a5b1959608a1b6044820152606401610263565b6008805460ff60a01b1916600160a01b1790556007546040805184815290516001600160a01b03909216917fa21795436a9f6a3b412fd6780f01a49907f2181e76e938496b0a41991d99b61c9181900360200190a2506107f26001600055565b50565b6000600854600160a01b900460ff16600381111561081557610815610b0d565b148061083e57506001600854600160a01b900460ff16600381111561083c5761083c610b0d565b145b61089d5760405162461bcd60e51b815260206004820152602a60248201527f4f7074696f6e206d7573742062652043726561746564206f722041637469766560448201526920746f2065787069726560b01b6064820152608401610263565b6008805460ff60a01b1916600160a11b17905560405133907fa64aea50ffa4e1713d00db76dee2154e493a0e94b75eefa4b7f4f00248ccfa2090600090a2565b6008546001600160a01b031633146109375760405162461bcd60e51b815260206004820152601b60248201527f4f6e6c7920666163746f72792063616e2073657420686f6c64657200000000006044820152606401610263565b6001600160a01b0381166109865760405162461bcd60e51b8152602060048201526016602482015275496e76616c696420686f6c646572206164647265737360501b6044820152606401610263565b6007546001600160a01b0316156109d45760405162461bcd60e51b8152602060048201526012602482015271121bdb19195c88185b1c9958591e481cd95d60721b6044820152606401610263565b6000600854600160a01b900460ff1660038111156109f4576109f4610b0d565b14610a415760405162461bcd60e51b815260206004820152601f60248201527f4f7074696f6e206d75737420626520696e2043726561746564207374617465006044820152606401610263565b600780546001600160a01b0319166001600160a01b0392909216919091179055565b60006001600854600160a01b900460ff166003811115610a8557610a85610b0d565b148015610a9457506004544210155b8015610aaf5750600454610aab90620d2f00610baa565b4211155b905090565b600260005403610b065760405162461bcd60e51b815260206004820152601f60248201527f5265656e7472616e637947756172643a207265656e7472616e742063616c6c006044820152606401610263565b6002600055565b634e487b7160e01b600052602160045260246000fd5b6020810160048310610b4557634e487b7160e01b600052602160045260246000fd5b91905290565b600060208284031215610b5d57600080fd5b5035919050565b600060208284031215610b7657600080fd5b81356001600160a01b0381168114610b8d57600080fd5b9392505050565b634e487b7160e01b600052601160045260246000fd5b80820180821115610bbd57610bbd610b94565b92915050565b8082028115828204841417610bbd57610bbd610b94565b600082610bf757634e487b7160e01b600052601260045260246000fd5b500490565b600060208284031215610c0e57600080fd5b81518015158114610b8d57600080fdfea26469706673582212206acdaa93686a72ccf7bcc96d79f36094bf2300bd410e870308f4ef7059f957c964736f6c63430008130033a264697066735822122064636b6c8808c174570ffc9bc43c598bc980b3cd71f19fa42cc4c489e2afffc764736f6c63430008130033",
  "linkReferences": {},
  "deployedLinkReferences": {}
}